{"abi":[{"type":"constructor","inputs":[],"stateMutability":"nonpayable"},{"type":"function","name":"deposit","inputs":[{"name":"_playerId","type":"uint256","internalType":"uint256"}],"outputs":[],"stateMutability":"payable"},{"type":"function","name":"getBalance","inputs":[{"name":"_playerId","type":"uint256","internalType":"uint256"}],"outputs":[{"name":"","type":"uint256","internalType":"uint256"}],"stateMutability":"view"},{"type":"function","name":"maxBet","inputs":[],"outputs":[{"name":"","type":"uint256","internalType":"uint256"}],"stateMutability":"view"},{"type":"function","name":"minBet","inputs":[],"outputs":[{"name":"","type":"uint256","internalType":"uint256"}],"stateMutability":"view"},{"type":"function","name":"owner","inputs":[],"outputs":[{"name":"","type":"address","internalType":"address"}],"stateMutability":"view"},{"type":"function","name":"placeBet","inputs":[{"name":"_playerId","type":"uint256","internalType":"uint256"},{"name":"_betAmount","type":"uint256","internalType":"uint256"}],"outputs":[],"stateMutability":"nonpayable"},{"type":"function","name":"players","inputs":[{"name":"","type":"uint256","internalType":"uint256"}],"outputs":[{"name":"balance","type":"uint256","internalType":"uint256"},{"name":"exists","type":"bool","internalType":"bool"},{"name":"activeBet","type":"uint256","internalType":"uint256"},{"name":"hasActiveBet","type":"bool","internalType":"bool"},{"name":"playerAddress","type":"address","internalType":"address"}],"stateMutability":"view"},{"type":"function","name":"resolveGame","inputs":[{"name":"_playerId","type":"uint256","internalType":"uint256"},{"name":"_gameState","type":"uint8","internalType":"enum Blackjack.GameState"}],"outputs":[],"stateMutability":"nonpayable"},{"type":"function","name":"updateBetLimits","inputs":[{"name":"_newMinBet","type":"uint256","internalType":"uint256"},{"name":"_newMaxBet","type":"uint256","internalType":"uint256"}],"outputs":[],"stateMutability":"nonpayable"},{"type":"function","name":"withdraw","inputs":[{"name":"_playerId","type":"uint256","internalType":"uint256"},{"name":"_amount","type":"uint256","internalType":"uint256"}],"outputs":[],"stateMutability":"nonpayable"},{"type":"function","name":"withdrawHouseFunds","inputs":[{"name":"_amount","type":"uint256","internalType":"uint256"}],"outputs":[],"stateMutability":"nonpayable"},{"type":"event","name":"BetPlaced","inputs":[{"name":"playerId","type":"uint256","indexed":false,"internalType":"uint256"},{"name":"amount","type":"uint256","indexed":false,"internalType":"uint256"}],"anonymous":false},{"type":"event","name":"FundsDeposited","inputs":[{"name":"playerId","type":"uint256","indexed":false,"internalType":"uint256"},{"name":"player","type":"address","indexed":true,"internalType":"address"},{"name":"amount","type":"uint256","indexed":false,"internalType":"uint256"}],"anonymous":false},{"type":"event","name":"FundsWithdrawn","inputs":[{"name":"playerId","type":"uint256","indexed":false,"internalType":"uint256"},{"name":"player","type":"address","indexed":true,"internalType":"address"},{"name":"amount","type":"uint256","indexed":false,"internalType":"uint256"}],"anonymous":false},{"type":"event","name":"GameResult","inputs":[{"name":"playerId","type":"uint256","indexed":false,"internalType":"uint256"},{"name":"result","type":"uint8","indexed":false,"internalType":"enum Blackjack.GameState"},{"name":"payout","type":"uint256","indexed":false,"internalType":"uint256"}],"anonymous":false}],"bytecode":{"object":"0x6080604052662386f26fc10000600255678ac7230489e8000060035534801561002757600080fd5b50600180546001600160a01b03191633179055610e89806100496000396000f3fe60806040526004361061009c5760003560e01c80637a257b1a116100645780637a257b1a1461014c5780637d59441a1461016c5780638da5cb5b1461018c5780639619367d146101c4578063b6b55f25146101da578063f71d96cb146101ed57600080fd5b8063034d3ec2146100a15780631e010439146100c35780632e5b2168146100f6578063441a3e701461010c5780634afe62b51461012c575b600080fd5b3480156100ad57600080fd5b506100c16100bc366004610ca5565b610279565b005b3480156100cf57600080fd5b506100e36100de366004610cc7565b6102fb565b6040519081526020015b60405180910390f35b34801561010257600080fd5b506100e360035481565b34801561011857600080fd5b506100c1610127366004610ca5565b61033f565b34801561013857600080fd5b506100c1610147366004610ca5565b6105ee565b34801561015857600080fd5b506100c1610167366004610ce0565b6107ff565b34801561017857600080fd5b506100c1610187366004610cc7565b6109f4565b34801561019857600080fd5b506001546101ac906001600160a01b031681565b6040516001600160a01b0390911681526020016100ed565b3480156101d057600080fd5b506100e360025481565b6100c16101e8366004610cc7565b610b0c565b3480156101f957600080fd5b50610246610208366004610cc7565b6000602081905290815260409020805460018201546002830154600390930154919260ff91821692909181169061010090046001600160a01b031685565b60408051958652931515602086015292840191909152151560608301526001600160a01b0316608082015260a0016100ed565b6001546001600160a01b031633146102ac5760405162461bcd60e51b81526004016102a390610d14565b60405180910390fd5b8082106102f05760405162461bcd60e51b8152602060048201526012602482015271496e76616c696420626574206c696d69747360701b60448201526064016102a3565b600291909155600355565b60008181526020819052604081206001015460ff1661032c5760405162461bcd60e51b81526004016102a390610d55565b5060009081526020819052604090205490565b600082815260208190526040902060010154829060ff166103725760405162461bcd60e51b81526004016102a390610d55565b600083815260208190526040902060030154839061010090046001600160a01b031633146103e25760405162461bcd60e51b815260206004820152601e60248201527f4f6e6c7920706c61796572206f776e65722063616e207769746864726177000060448201526064016102a3565b600083116104435760405162461bcd60e51b815260206004820152602860248201527f5769746864726177616c20616d6f756e74206d75737420626520677265617465604482015267072207468616e20360c41b60648201526084016102a3565b60008481526020819052604090206003015460ff16156104a55760405162461bcd60e51b815260206004820152601f60248201527f43616e6e6f74207769746864726177207769746820616374697665206265740060448201526064016102a3565b6000848152602081905260409020548311156104fa5760405162461bcd60e51b8152602060048201526014602482015273496e73756666696369656e742062616c616e636560601b60448201526064016102a3565b60008481526020819052604081208054859290610518908490610da2565b9091555050604051600090339085908381818185875af1925050503d806000811461055f576040519150601f19603f3d011682016040523d82523d6000602084013e610564565b606091505b50509050806105ac5760405162461bcd60e51b81526020600482015260146024820152732330b4b632b2103a379039b2b7321022ba3432b960611b60448201526064016102a3565b604080518681526020810186905233917ff440aec6b52895984d061d622e6edeba6210f7c3e059be920663140c084560d7910160405180910390a25050505050565b600082815260208190526040902060010154829060ff166106215760405162461bcd60e51b81526004016102a390610d55565b60008381526020819052604090206003015460ff16156106835760405162461bcd60e51b815260206004820152601860248201527f506c617965722068617320616e2061637469766520626574000000000000000060448201526064016102a3565b6002548210156106d55760405162461bcd60e51b815260206004820152601860248201527f42657420616d6f756e742062656c6f77206d696e696d756d000000000000000060448201526064016102a3565b6003548211156107275760405162461bcd60e51b815260206004820152601860248201527f42657420616d6f756e742061626f7665206d6178696d756d000000000000000060448201526064016102a3565b60008381526020819052604090205482111561077c5760405162461bcd60e51b8152602060048201526014602482015273496e73756666696369656e742062616c616e636560601b60448201526064016102a3565b6000838152602081905260408120805484929061079a908490610da2565b90915550506000838152602081815260409182902060028101859055600301805460ff1916600117905581518581529081018490527fac7ba36fe6c4c7a9dd581814563bf9c3e83cbf25f9971fe6378954bce56ab456910160405180910390a1505050565b6001546001600160a01b031633146108295760405162461bcd60e51b81526004016102a390610d14565b600082815260208190526040902060010154829060ff1661085c5760405162461bcd60e51b81526004016102a390610d55565b60008381526020819052604090206003015460ff166108bd5760405162461bcd60e51b815260206004820152601d60248201527f4e6f206163746976652062657420666f72207468697320706c6179657200000060448201526064016102a3565b600083815260208190526040812060029081015491908460068111156108e5576108e5610dbb565b036109085760026108f7836005610dd1565b6109019190610de8565b9050610965565b600484600681111561091c5761091c610dbb565b14806109395750600184600681111561093757610937610dbb565b145b1561094957610901826002610dd1565b600684600681111561095d5761095d610dbb565b036109655750805b801561098f5760008581526020819052604081208054839290610989908490610e0a565b90915550505b60008581526020819052604080822060028101929092556003909101805460ff19169055517ff3336c9ff1bcf95c209ce39205bb8207c96ba994485239e1619bdca2744727ae906109e590879087908590610e1d565b60405180910390a15050505050565b6001546001600160a01b03163314610a1e5760405162461bcd60e51b81526004016102a390610d14565b47811115610a6e5760405162461bcd60e51b815260206004820152601d60248201527f496e73756666696369656e7420636f6e74726163742062616c616e636500000060448201526064016102a3565b6001546040516000916001600160a01b03169083908381818185875af1925050503d8060008114610abb576040519150601f19603f3d011682016040523d82523d6000602084013e610ac0565b606091505b5050905080610b085760405162461bcd60e51b81526020600482015260146024820152732330b4b632b2103a379039b2b7321022ba3432b960611b60448201526064016102a3565b5050565b60003411610b6a5760405162461bcd60e51b815260206004820152602560248201527f4465706f73697420616d6f756e74206d75737420626520677265617465722074604482015264068616e20360dc1b60648201526084016102a3565b60008181526020819052604090206001015460ff16610bbe5760008181526020819052604090206001808201805460ff191690911790556003018054610100600160a81b0319166101003302179055610c45565b60008181526020819052604090206003015461010090046001600160a01b03163314610c455760405162461bcd60e51b815260206004820152603060248201527f506c61796572496420616c7265616479207265676973746572656420746f206460448201526f6966666572656e74206164647265737360801b60648201526084016102a3565b60008181526020819052604081208054349290610c63908490610e0a565b90915550506040805182815234602082015233917fe030e47e27825a2ad1b19e4cf2e70bfbfb3124af275c7727a82b114ba7b29a85910160405180910390a250565b60008060408385031215610cb857600080fd5b50508035926020909101359150565b600060208284031215610cd957600080fd5b5035919050565b60008060408385031215610cf357600080fd5b82359150602083013560078110610d0957600080fd5b809150509250929050565b60208082526021908201527f4f6e6c79206f776e65722063616e2063616c6c20746869732066756e6374696f6040820152603760f91b606082015260800190565b60208082526018908201527f506c6179657220494420646f6573206e6f742065786973740000000000000000604082015260600190565b634e487b7160e01b600052601160045260246000fd5b81810381811115610db557610db5610d8c565b92915050565b634e487b7160e01b600052602160045260246000fd5b8082028115828204841417610db557610db5610d8c565b600082610e0557634e487b7160e01b600052601260045260246000fd5b500490565b80820180821115610db557610db5610d8c565b8381526060810160078410610e4257634e487b7160e01b600052602160045260246000fd5b60208201939093526040015291905056fea2646970667358221220cfcb78d460de085cb267a56e1ed0fda64fb8ce6b76f31fb890dc11734f73cf8964736f6c63430008170033","linkReferences":{}},"methodIdentifiers":{"deposit(uint256)":"b6b55f25","getBalance(uint256)":"1e010439","maxBet()":"2e5b2168","minBet()":"9619367d","owner()":"8da5cb5b","placeBet(uint256,uint256)":"4afe62b5","players(uint256)":"f71d96cb","resolveGame(uint256,uint8)":"7a257b1a","updateBetLimits(uint256,uint256)":"034d3ec2","withdraw(uint256,uint256)":"441a3e70","withdrawHouseFunds(uint256)":"7d59441a"},"id":23}